:020000040800F2
:100000000000012069800008AD790008AF79000880
:10001000B1790008B3790008B57900080000000044
:10002000000000000000000000000000B779000898
:10003000B979000800000000BB790008BD7900080C
:10004000B9800008B9800008B9800008B9800008AC
:10005000B9800008B9800008C5790008CF79000888
:10006000D9790008E3790008ED790008B980000823
:10007000B9800008B9800008B9800008B98000087C
:10008000B9800008B9800008B980000800000000AD
:10009000000000000000000000000000B98000081F
:1000A000B9800008B9800008B9800008B98000084C
:1000B000B9800008F9790008097A0008B9800008B9
:1000C000B9800008B9800008B9800008B98000082C
:1000D000B9800008B9800008B9800008000000005D
:1000E000B9800008B9800008B9800008000000004D
:1000F000000000000000000000000000B9800008BF
:1001000000000000B9800008197A0008B9800008D2
:1001100000000000000000000000000000000000DF
:10012000B9800008B9800008B9800008B9800008CB
:10013000B98000080000000000000000000000007E
:10014000000000000000000000000000B98000086E
:10015000B9800008B9800008B9800008B98000089B
:10016000B9800008B980000800000000000000000D
:10017000000000000000000000000000000000007F
:1001800000000000B980000800000000000000002E
:04019000B98000082A
:1001C0000348044B834202D0034B03B118477047E6
:1001D000BC090020BC0900200000000005480649B9
:1001E0000B1AD90F01EBA301491002D0034B03B145
:1001F00018477047BC090020BC090020000000001F
:1002000010B5064C237843B9FFF7DAFF044B13B15E
:100210000448AFF300800123237010BDBC09002007
:10022000000000009096000808B5044B1BB104497B
:100230000448AFF30080BDE80840CFE700000000AD
:10024000C00900209096000853B94AB9002908BF98
:1002500000281CBF4FF0FF314FF0FF3000F074B9A1
:10026000ADF1080C6DE904CE00F006F8DDF804E00D
:10027000DDE9022304B070472DE9F047089E0D46E2
:1002800004468846002B4DD18A42944668D9B2FA7A
:1002900082F252B101FA02F3C2F1200120FA01F117
:1002A0000CFA02FC41EA030894404FEA1C45210C79
:1002B000B8FBF5FE1FFA8CF705FB1E8341EA0343EA
:1002C0000EFB07F199420BD91CEB03030EF1FF3033
:1002D00080F01E81994240F21B81AEF1020E634410
:1002E0005B1AA4B2B3FBF5F005FB103344EA0344F8
:1002F00000FB07F7A7420AD91CEB040400F1FF3307
:1003000080F00881A74240F2058164440238E41B72
:1003100040EA0E4000211EB1D4400023C6E900434C
:10032000BDE8F0878B4208D9002E00F0EE80002156
:10033000C6E900050846BDE8F087B3FA83F1002955
:100340004AD1AB4202D3824200F2F980841A65EBB3
:10035000030301209846002EE2D0C6E90048DFE7FB
:1003600002B9FFDEB2FA82F2002A40F09180A1EBDE
:100370000C054FEA1C471FFA8CFE0121B5FBF7F371
:1003800007FB1350250C45EA00450EFB03F0A8427D
:1003900008D91CEB050503F1FF3802D2A84200F290
:1003A000CB8043462D1AA4B2B5FBF7F007FB1055DE
:1003B00044EA05440EFB00FEA64508D91CEB0404E4
:1003C00000F1FF3502D2A64500F2BB802846A4EB1F
:1003D0000E0440EA03409EE7C1F120078B4022FA59
:1003E00007FC4CEA030C20FA07F405FA01F31C435E
:1003F000FD404FEA1C4900FA01F3B5FBF9F8200C67
:100400001FFA8CFE09FB185540EA054508FB0EF063
:10041000A84202FA01F20BD91CEB050508F1FF3ADC
:1004200080F08880A84240F28580A8F102086544E7
:100430002D1AA4B2B5FBF9F009FB105544EA0545A5
:1004400000FB0EFEAE4508D91CEB050500F1FF349C
:100450006CD2AE456AD90238654440EA0840A0FB38
:100460000294A5EB0E05A542C846A64656D353D026
:100470005EB1B3EB080265EB0E0505FA07F722FA49
:1004800001F3CD401F43C6E900750021BDE8F087A8
:10049000C2F1200320FA03F10CFA02FC25FA03F35F
:1004A00095400D434FEA1C471FFA8CFEB3FBF7F152
:1004B00007FB11302B0C43EA004301FB0EF098427E
:1004C00004FA02F408D91CEB030301F1FF382FD220
:1004D00098422DD9023963441B1AADB2B3FBF7F031
:1004E00007FB103345EA034500FB0EF3AB4208D986
:1004F0001CEB050500F1FF3816D2AB4214D90238C7
:100500006544ED1A40EA014138E73146304607E7D5
:100510008646E5E61846FAE64B45A9D2B9EB02084D
:1005200064EB0C0E0138A3E74046EAE7204694E767
:100530004146D1E7D0467BE7023B654432E70846B7
:1005400009E76444023842E7704700BF00230146D0
:100550001A46184601F05EBC014B1868704700BF90
:100560000000002038B5084B084D5B1B9C1007D0DD
:10057000043B1D44013C55F804399847002CF9D13F
:10058000BDE8384009F08AB8189D0008149D00089D
:1005900070B50D4E0D4D761BB61006D0002455F8E3
:1005A000043B01349847A642F9D1094E094D761B08
:1005B00009F06EF8B61006D0002455F8043B01345B
:1005C0009847A642F9D170BD0C9D00080C9D00080B
:1005D000149D00080C9D0008830730B548D0541EB8
:1005E000002A3FD0CAB2034601E0013C3AD303F8E7
:1005F000012B9D07F9D1032C2DD9CDB245EA052554
:100600000F2C45EA054536D9A4F1100222F00F0C53
:1006100003F1200EE6444FEA121C03F1100242E9F6
:10062000045542E9025510327245F8D10CF101022D
:1006300014F00C0F03EB021204F00F0C13D0ACF10A
:10064000040323F003030433134442F8045B93428E
:10065000FBD10CF003042CB1CAB21C4403F8012BEB
:100660009C42FBD130BD64461346002CF4D1F9E71F
:1006700003461446BFE71A46A446E0E70EB400B5A9
:1006800082B003AB816853F8042B019300F0C6F8E5
:1006900002B05DF804EB03B0704700BF0FB400B5C3
:1006A000074983B004AB086853F8042B81680193B1
:1006B00000F0B4F803B05DF804EB04B0704700BF7D
:1006C0000000002070B5044688B008460D4600F0D2
:1006D00037F8154EA26B059001214318CDE906614C
:1006E00004A8022104950393A56801900291B2B178
:1006F000B5F90C309A0406D46A6E43F4005322F420
:100700000052AB816A6601AA2946204602F0DAFE51
:10071000002814BF4FF0FF300A2008B070BD2046FB
:1007200002F05AFDE4E700BF049B0008024B0146BB
:100730001868FFF7C7BF00BF0000002000000000DE
:1007400090F800F06DE9024520F007016FF0000C11
:1007500010F0070491F820F040F049804FF00004B9
:100760006FF00700D1E9002391F840F000F1080094
:1007700082FA4CF2A4FA8CF283FA4CF3A2FA8CF3CC
:100780004BBBD1E9022382FA4CF200F10800A4FA33
:100790008CF283FA4CF3A2FA8CF3E3B9D1E9042387
:1007A00082FA4CF200F10800A4FA8CF283FA4CF3BE
:1007B000A2FA8CF37BB9D1E9062301F1200182FA78
:1007C0004CF200F10800A4FA8CF283FA4CF3A2FA7E
:1007D0008CF3002BC6D0002A04BF04301A4612BA8C
:1007E000B2FA82F2FDE8024500EBD2007047D1E98F
:1007F000002304F00305C4F100004FEAC50514F01E
:10080000040F91F840F00CFA05F562EA05021CBFEE
:1008100063EA050362464FF00004A9E72DE9F04FB3
:10082000BFB01C468846914605460C9003F004F87C
:100830000268149210460D94FFF782FF12901DB1CA
:10084000AB6B002B00F03282B8F90C309D049AB2E9
:100850000AD443F40053A8F80C309AB2D8F86430A4
:1008600023F40053C8F86430100740F1AB80D8F887
:100870001030002B00F0A68002F01A020A2A00F0C5
:10088000AF800023CDE922330F93139315930A937E
:1008900000240023CDE910342EAA2192924699F823
:1008A0000030002B00F098814C4604E014F8013F22
:1008B000002B00F0E180252BF8D1B4EB090540F0C6
:1008C000DF802378002B00F0878100234FF0FF3278
:1008D000CDE9082365788DF8673004F101091846E1
:1008E0009B4609F10109A5F12002582A00F2EB808C
:1008F000DFE812F06F02E900E9006A02E900E900AE
:10090000E900E900E900E9001D026502E9002802AA
:100910002D02E900600259005900590059005900A0
:100920005900590059005900E900E900E900E900BF
:10093000E900E900E900E900E900E90047027C017B
:10094000E9007C01E900E900E900E900A602E9000C
:10095000E9009400E900E900E900E900E900840009
:10096000E900E9008502E900E900E900E900E900A1
:10097000E900E900E900E900E9007702E0017C0113
:100980007C017C01AB02E001E900E900DC02E90046
:10099000C6029600B502B002E9000A03E90086002B
:1009A000E900E900E902A5F13002002119F8015B34
:1009B00001EB810102EB4101A5F13002092AF5D9D1
:1009C000099190E70C98414601F0BAF9002841F0EE
:1009D000F380B8F80C2002F01A020A2A7FF451AF13
:1009E000B8F90E30002BFFF64CAF0C9823464A4660
:1009F00041463FB0BDE8F04F01F06CB94BF0100B31
:100A00001BF0200100F044810D9B073323F0070306
:100A1000596853F8080B0D9301230EE04BF0100BAF
:100A20001BF0200100F027810D9B073323F0070303
:100A3000596853F8080B0D93002300248DF8674084
:100A4000089A561C00F084822BF08006069650EA25
:100A5000010640F07B82002A40F00083002B40F02A
:100A600003851BF001030B9300F0788530238DF88C
:100A7000B7300DF1B70690E2B4EB090500F0AC8099
:100A8000239B2B442393229B0133072BCAE9009518
:100A9000229305DC0AF1080A0A9B2B440A9310E70B
:100AA0000C9821AA414604F03DFB18B90DF1B80A93
:100AB000F2E7B846B8F80C305B0601F17D800A9881
:100AC0003FB0BDE8F08F002B40F0BF87002D00F055
:100AD000838000238DF8673001238DF890500793B1
:100AE0000B9324AE0023CDF818B008930E93069B09
:100AF00013F0020302D0079A02320792069A12F00C
:100B0000840B05D1099A0799571A002F00F399838E
:100B1000239C9DF867208AB1229A0DF1670101326A
:100B20000134CAF80010072A4FF0010123942292E1
:100B3000CAF8041000F3CE830AF1080A83B1229B9D
:100B40001AAA01330234CAF80020072B4FF0020220
:100B500023942293CAF8042000F3CA830AF1080AF6
:100B6000BBF1800F00F09682089B0B9AA3EB020B5F
:100B7000BBF1000F00F3D082069BDF0500F1168267
:100B80000B9BCAF804301C44229BCAF80060013356
:100B9000072B2394229300F348830AF1080A069B4B
:100BA0005A0705D5099B079A9D1A002D00F3AC83BF
:100BB000DDE9092307998A42ACBF9B185B180A93A9
:100BC000002C40F0E3820023229399F800300DF1CD
:100BD000B80A002B7FF468AE239B002B3FF46AAF6A
:100BE0000C9821AA414604F09DFA63E7002B40F0DF
:100BF000CC870D9B073323F00702F2E80234CDE9DE
:100C00001034DDE9103424F000440D921E461846DD
:100C10002146B84B4FF0FF3206F01CFB002840F095
:100C2000A384B44B304621464FF0FF3206F0F4FA6D
:100C3000002840F09984DDE910010022002306F02D
:100C4000E1FA002840F0E4869DF86740AA4E2BF0B8
:100C500080030693A94B0022472DC8BF1E460323DD
:100C6000CDE907320B930E92002C3FF440AF079B67
:100C7000013307933BE71BF0100352D11BF04001F7
:100C80004FD00D9A52F8040B0D92194680B2D4E65B
:100C90001BF010033FD11BF040013CD00D9A52F8DD
:100CA000040B0D92194680B20123C6E60C9802F09F
:100CB00093FAC9E5002B40F078871BF0200F0D9BBD
:100CC00068D0073323F007031A465B6852F8080B15
:100CD0000D921946002BC0F22D84089B013300F0C1
:100CE000F2842BF08003069350EA01039DF86740DD
:100CF00000F0B683DDF818B00A2871F1000380F027
:100D0000E984303001238DF8B700CDF818B00B938B
:100D10000DF1B70641E10D9B53F8040B0D93012330
:100D20008BE60D9B53F8040B0D930B4685E60D9A4D
:100D300052F8041B0991002980F20B8409990D9245
:100D40004942099199F800504BF0040BC9E5494616
:100D500011F8015B2A2D00F09E87A5F13002092AC7
:100D6000894698BF002100F20C8719F8015B01EB5E
:100D7000810102EB4101A5F13002092AF5D9089160
:100D8000B1E5002B40F009874BF0100B1BF0200F52
:100D90000D9B96D153F8040B0D931BF0100F40F0F0
:100DA000C4831BF0400F00F0C08340F3C0310B46FA
:100DB00000B28FE799F800504BF0800B91E599F85D
:100DC000005001232B208CE599F800504BF0010BCB
:100DD00087E599F8005000287FF483AD0123202097
:100DE0007FE50D9B00228DF8672053F8042B0D93AF
:100DF00001238DF8902007930B9324AE72E6002B0D
:100E000040F0BB863E4B13931BF0200163D00D9B3B
:100E1000073323F00703596853F8080B0D931BF0B1
:100E2000010F0BD050EA010308D030238DF8683051
:100E30008DF869504BF0020B0223FEE50223FCE51E
:100E400099F800504BF0080B4BE599F800504BF027
:100E5000400B46E599F800504BF0200B41E50D9B07
:100E600053F8040B0D93302378258DF86830254B0B
:100E700013934BF0020B8DF8695000210223DCE53F
:100E8000002B40F086861BF0200F40F012841BF0F0
:100E9000100F40F084841BF0400F00F080840D9B05
:100EA0000A9953F8042B0D931180F8E499F8005037
:100EB0006C2D03BF99F801504BF0200B09F101098B
:100EC0004BF0100B0DE5002B40F06B860D4B139390
:100ED0001BF020019BD11BF0100340F021831BF07D
:100EE000400100F01D830D9A52F8040B0D92194633
:100EF00080B294E7FFFFEF7FE49B0008E89B0008C7
:100F0000089C0008F49B00080D9C089B54F8046B97
:100F100000278DF86770002E00F010845A1C00F036
:100F200005851A463946304602F0DAFF002800F0FF
:100F30000C86831B0B9323EAE3730D9408979DF8AB
:100F40006740CDF818B007930E978DE6DDF818B01E
:100F5000012B3FF4D1AE022B00F088802EAE00F0C2
:100F60000703C00840EA4170C908303350EA01075E
:100F7000324606F8013DF2D11BF0010F00F08480EB
:100F8000302B00F081803023023A06F8013C2EAB72
:100F90009B1ACDF818B00B931646089B0B9A9342F8
:100FA000B8BF1346079300230E935DE6652D40F30B
:100FB000F680DDE910010022002306F019F900286F
:100FC00000F0DB81229BC04ACAF8002001330134C3
:100FD0000122072B23942293CAF8042000F35084A3
:100FE0000AF1080A1B9B0F9A934280F2AD82129B72
:100FF000149A1C44CAE90023229B23940133072B33
:10100000229300F38F830AF1080A0F9B5D1E002DC7
:101010007FF7C5AD102D229BAC4F40F32584DDF842
:1010200030B0102605E00AF1080A103D102D40F3FB
:101030001B8401331034072BCAE90076CDE9223432
:10104000F1DD21AA4146584604F06CF800287FF4EF
:1010500031ADDDE922340DF1B80AE6E7012B00F0ED
:101060002585022BDDF818B07FF478AF139A2EAEE9
:1010700000F00F030009D35C06F8013D40EA01705F
:10108000090950EA0103F3D12EAB9B1BCDF818B030
:101090000B9382E7099B079AA3EB020BBBF1000FAE
:1010A0007FF762ADBBF1100F229A884F26DD2146F3
:1010B00010230C9C06E0ABF1100BBBF1100F0AF1F2
:1010C000080A1ADD01321031072ACAE90073CDE996
:1010D0002221F0DD21AA414620460DF1B80A04F094
:1010E00021F800287FF4E6ACABF1100BBBF1100F38
:1010F000DDE922214FF01003E4DC0C4601325C44B0
:10110000072ACDE92224CAF80070CAF804B000F317
:10111000C4830AF1080A27E5BBF1100F229A6B4F2E
:1011200026DD214610230C9C06E0ABF1100BBBF131
:10113000100F0AF1080A1ADD01321031072ACAE934
:101140000073CDE92221F0DD21AA4146204603F0BB
:10115000E9FF00287FF4AEACABF1100BBBF1100F30
:10116000DDE922210DF1B80A4FF01003E4DC0C4652
:1011700001325C44072ACDE92224CAF80070CAF87B
:1011800004B000F3C0810AF1080AF5E40C9821AA22
:10119000414603F0C7FF00283FF415AD8AE40F9BDA
:1011A000012B40F36681229DCAF8006001350134AD
:1011B0000123072D23942295CAF8043000F3F78207
:1011C0000AF1080A129B149A01351C44072DCAE93A
:1011D0000023CDE9225400F3F7820AF1080ADDE981
:1011E00010010022002306F003F8002840F05F8180
:1011F0000F9B0135013B01361C44072DCAF80060E6
:101200002295CAF80430239400F344810AF1080AB5
:10121000159BCAF8043001351C44072D1DABCDE9E0
:101220002254CAF800307FF7B8AC0C9821AA414686
:1012300003F078FF00287FF43DAC239C0DF1B80A41
:10124000ADE4102FDDE922212FDDCDE916354B4627
:101250000C9DB14610243E4608464746984604E099
:10126000103E102E0AF1080A17DD0132184B10301B
:10127000072ACAE90034CDE92220F1DD21AA394646
:1012800028460DF1B80A03F04DFF00287FF411AC99
:10129000103E102EDDE92220E7DCDDE9163501469F
:1012A0004046B84637464E46814601327C18072AEA
:1012B0000749CAF80470CDE92224CAF8001000F3E7
:1012C000C4820AF1080A24E4249C0008BC960008A1
:1012D000AC9600080C98169321AA414603F022FF11
:1012E00000287FF4E7AB239C169B0DF1B80A25E498
:1012F0000C9821AA414603F015FF00287FF4DAABD1
:10130000239C0DF1B80A2BE4102D229B1FDD0C9FAE
:10131000102604E0103D102D0AF1080A17DD0133F4
:101320008F4A1034072BCAE90026CDE92234F1DDBB
:1013300021AA414638460DF1B80A03F0F3FE002811
:101340007FF4B8AB103D102DDDE92234E7DC01332A
:10135000834ACAF804502C44072BCDE92234CAF83A
:1013600000207FF725AC0C9821AA414603F0DAFE55
:1013700000287FF49FAB239C1AE41B99002940F3BB
:101380003082DDE90E379F42A8BF1F46002F0BDDDC
:10139000229B01333C44072BCAE900672394229324
:1013A00000F3B5830AF1080A0E9D002FA8BFED1BBC
:1013B000002D00F3CC811B9D0F9B9D4280F2A681E6
:1013C000129B149A1C44CAE90023229B23940133E4
:1013D000072B229300F38E830AF1080A0F9B0E9AC3
:1013E0005D1B9F1AAF42A8BF2F46002F0EDD229B28
:1013F000CAF80470013316443C44072BCAF8006055
:101400002394229300F392830AF1080A002FA8BFC5
:10141000ED1B002D7FF7C3AB102D229B514F40F3E6
:101420002382DDF830B0102605E00AF1080A103DED
:10143000102D40F3198201331034072BCAE90076CE
:10144000CDE92234F1DD21AA4146584603F06AFE77
:1014500000287FF42FABDDE922340DF1B80AE6E76E
:10146000089B002B40F02283002308930B932EAEA1
:1014700093E5069BD9073FF596AE229DCAF800601A
:10148000013501340123072D23942295CAF8043035
:101490007FF7BCAE0C9821AA414603F043FE00281A
:1014A0007FF408ABDDE922540DF1B80AB0E60F9BDA
:1014B0005E1E002E7FF7ACAE102E2A4F40F34982FD
:1014C000CDF820904FF0100BC146DDF8308005E0DC
:1014D0000AF1080A103E102E40F33882013510340C
:1014E000072DCAE9007BCDE92254F1DD21AA494646
:1014F000404603F017FE002840F05B83DDE92254EC
:101500000DF1B80AE6E70C9821AA414603F00AFE5D
:1015100000287FF4CFAA239C0DF1B80AFFF72CBB5B
:101520000D9B53F8040B0D9379E4C1170B46002B68
:10153000BFF6D3AB40424FF02D0461EB41018DF873
:1015400067400123FFF77CBA069BDD077FF527ABD9
:101550004DE599F800500D92FFF7C3B92EAE1CE58A
:10156000AC960008BC960008DDE9100102460B4667
:1015700005F070FE002840F04E83089B013325F0F3
:1015800020030B9300F0CF82472B00F06F82DDE940
:1015900010124BF48073171E0693C0F23E82109B0C
:1015A000079300231693662D00F0DF81462D00F08F
:1015B000DC810B9B079A0C98452B1FA908BF089B41
:1015C00004911CA903911BA90CBF5C1C089C0291EF
:1015D00002213B460194009100F0E4FC672D064691
:1015E00040F02E821BF0010F40F02D821F9B9B1BB1
:1015F0000F930B9B472B40F05A831B9B0E93D91CD8
:1016000003DB089A934240F36782023D0E9A8DF8FD
:101610007450531E002B1B93B6BFC2F101032B2243
:101620002D22092B8DF8752040F3E3820DF1830400
:10163000BA4F2246104687FB0321DA17C2EBA102FC
:1016400002EB8201A3EB4101303100F8011C194685
:101650006329134600F1FF32ECDC3033D9B2831E2C
:101660009C4202F8011C40F2138313460DF17602EE
:1016700001E013F8011B02F8011B9C42F9D10DF1A6
:1016800085030DF176021B1A13441DAA9B1A1593AC
:101690000F9A159B012A13440B9340F3B3820B9BC3
:1016A000129A13440B9323EAE373079300230E93D8
:1016B00093E10D9B0A9853F8041B0D93C217C1E9DF
:1016C0000002FFF7ECB80A2871F100039DF86740AB
:1016D000FFF417AB2EAE06950A22002307460D46EF
:1016E000FEF7B2FD303206F8012D002338462946B8
:1016F0000A22FEF7A9FD0A2F75F10003ECD22EABEA
:101700009B1B069D0B93CDF818B046E4069BD807AB
:101710003FF556AEDDE90E239F1A5D1BAF42A8BF11
:101720002F4673E60C9821AA414603F0FBFC0028E3
:101730007FF4C0A9239C0DF1B80A66E4062B28BFEC
:101740000623774E0B930D940793FFF7CBB9102D1B
:10175000229B744F40F34F813A46089647460C9EB1
:101760004FF0100B904605E00AF1080A103D102DCD
:1017700040F33D8101331034072BCAE9008BCDE9DA
:101780002234F1DD21AA3946304603F0CBFC002893
:101790007FF48FA9DDE922340DF1B80AE6E70D9B4D
:1017A0000A9953F8042B11600D93FFF778B80C9841
:1017B00021AA414603F0B6FC00287FF47BA9DDE9AD
:1017C00022540DF1B80AFDE40C9821AA414603F019
:1017D000A9FC00287FF46EA9DDE922540DF1B80AB6
:1017E000FDE4229B504ACAF8002001330134012253
:1017F000072B23942293CAF8042000F314810AF1E2
:10180000080A002956D1069B0F9A03F001031343DF
:101810003FF4C5A9129B14991A19CAE90013229B17
:1018200023920133072B229300F326810AF1080A41
:101830000F99CAF8006001338C18072BCDE92234C8
:10184000CAF804107FF7A9A9EFE40C98169321AA0F
:10185000414603F067FC00287FF42CA9239C169BCB
:101860000DF1B80AFFF755B901332C44072BCAF81C
:101870000070CAF80450CDE922347FF78EA9D4E471
:101880000C9821AA414603F04DFC00287FF412A9D0
:10189000239C0DF1B80AFFF7A5BB0C9821AA41467D
:1018A00003F040FC00287FF405A9239C0DF1B80A41
:1018B000FFF75AB9129B14981A19CAE90003229B20
:1018C00023920133072B229300F3D6800AF1080AF2
:1018D0000029ADDA4D421031124F80F27281DDF8ED
:1018E00030B0102405E00AF1080A103D102D40F335
:1018F000688101331032072BCAE90074CDE9223226
:10190000F1DD21AA4146584603F00CFC00287FF483
:10191000D1A8DDE922320DF1B80AE6E7676666660E
:101920001C9C0008BC960008249C000830460D94BE
:101930000897CDF818B0FEF703FF20EAE0739DF892
:1019400067400B9007930E97FFF78EB9C846DDF8F6
:101950002090CAF8007001353444072DCDE9225497
:10196000CAF804607FF752AC94E51FA904911CA942
:1019700003911BA9089C029103213B460194079AFD
:101980000C98009100F00EFB064604193378302BBA
:101990005FD01B9B1C44079839460022002305F0AA
:1019A00027FC002800F0868023469B1B0F930B9B8F
:1019B000472B3FF422AE662D40F079811B9B0E939E
:1019C000002B0BF0010B40F3538108995BEA0102F5
:1019D00040F03B810E9B07930B93169B002B75D019
:1019E0002D238DF8673000230893FFF740B9424656
:1019F000089EB846174601332C44072BCDE9223404
:101A0000CAF80070CAF8045044DC0AF1080AD2E4AB
:101A10002D248DF86740FFF719B92D23079102F1A6
:101A200000471693BFE50C9821AA414603F07AFBC4
:101A300000287FF43FA81B99239C0DF1B80AE0E62B
:101A4000472D3FF4CFAD3444A5E78DF86700FFF78D
:101A50003DB8079839460022002305F0C9FB00284D
:101A600097D1089BC3F101031B9393E7089B002BBD
:101A700008BF012308938AE50C9821AA414603F088
:101A800051FB00287FF416A8DDE922321B990DF1E5
:101A9000B80A1DE70C9821AA414603F043FB002831
:101AA0007FF408A8239C0DF1B80A84E4DDF818B08F
:101AB000FFF727B91F9BA342BFF477AF30215A1C11
:101AC0001F9219701F9B9C42F9D86EE7169B9DF8D8
:101AD00067400893FFF7C8B8DDE90E32934240DB58
:101AE0001BF0010F40F0A88023EAE37207920B93EA
:101AF000672572E70C9821AA414603F013FB0028E2
:101B00007EF4D8AF1B9D239C0DF1B80A66E40C98B7
:101B100021AA414603F006FB00287EF4CBAF239CAC
:101B20000DF1B80A40E40623089330E50C9821AA89
:101B3000414603F0F7FA00287EF4BCAF1B9D0F9BD3
:101B4000239C5D1B0DF1B80A60E4089B0D94CDF851
:101B500018B09DF8674007930B9308900E90FFF71D
:101B600083B8129A0F9B13440E9A0B93002A74DDCC
:101B700023EAE373079367252FE78DF86700FFF7E4
:101B800041B900220892FEF7AEBE8DF86700FFF75C
:101B900030B88DF86700FFF776B98DF86700FFF76A
:101BA000F3B88DF86700FFF791B98DF86700FFF77C
:101BB00084B8C846FEF77EBF4FF0FF330A93FEF7A6
:101BC0007EBF01332A44072BCDE92232CAF80070C8
:101BD000CAF804507FF72AAE0C9821AA414603F0B8
:101BE000A1FA00287EF466AFDDE922320DF1B80AD1
:101BF0001EE630338DF8773030238DF876300423AD
:101C0000159345E51BF001020E927FF448AD23EADF
:101C1000E3730793E1E6119B264E002BB8BF2D24FA
:101C20002BF080030693A8BF9DF86740224BB8BFF6
:101C30008DF86740FFF70FB80E9B129A13440B9371
:101C400023EAE37307936725C7E6129A13441944FE
:101C500021EAE1730B910793BFE60E9B0B9AC3F148
:101C600001031A4422EAE2730B9207936725B4E654
:101C7000089A5BEA020303D1012307930B93ACE6B6
:101C8000129B01331A4422EAE2730B920793A4E6F3
:101C900002231593FCE40D9A99F80150894652F8F5
:101CA000041B0D9241EAE1710891FEF71ABE1B9BDD
:101CB0000E93ABE4EC9B0008F09B000810B4044CBE
:101CC00084461346206810BC0A466146FEF7A6BD4E
:101CD0000000002070B50C468989ADF58D6D21F0AE
:101CE0000201ADF80C10616E1991E189ADF80E108A
:101CF000E1690791616A09911AA9009104914FF471
:101D00008061029105910021069169460646FEF721
:101D100085FD051E07DB6946304601F033F90028D2
:101D200018BF4FF0FF35BDF80C305B0603D5A38913
:101D300043F04003A38128460DF58D6D70BD00BFB3
:101D400038B5334B1B6805460C460BB19A6B12B382
:101D5000B4F90C3018079AB225D5216900292DD085
:101D600012F0010007D00020A06060694042A0612D
:101D700039B1002038BD950758BF6069A0600029BF
:101D8000F7D1120658BF0846F4D543F04003A381AB
:101D90004FF0FF3038BD184601F01EFAB4F90C3090
:101DA00018079AB2D9D4D1062AD5520714D421697A
:101DB00043F00803A3819AB20029D1D102F4207024
:101DC000B0F5007FCCD02146284601F03DFDB4F9A6
:101DD0000C3021699AB2C3E7216B51B104F1400282
:101DE000914204D0284601F067FAB4F90C30002281
:101DF000226321690022C4E9001223F02403D7E7FB
:101E0000092243F040032A604FF0FF30A38138BD20
:101E10000000002070B4184C2568D5F848411CB368
:101E200065681F2D25DC38B9AB1C0135656044F8A9
:101E30002310002070BC704704EB850C0228CCF8FE
:101E40008820D4F888614FF0010202FA05F246EAD0
:101E50000206C4F88861CCF80831E5D1D4F88C3199
:101E60001343C4F88C31DFE705F5A674C5F8484183
:101E7000D6E74FF0FF30DDE7A8960008000000002D
:101E80002DE9F04F03690C69A34283B0C0F286804C
:101E9000013C01F11405A30000F11408009355F86A
:101EA000243058F8242001338A469A4208EB8401F2
:101EB000814605EB84070191B2FBF3F638D300238A
:101EC000AE4640469B465EF8041B02681FFA81FC42
:101ED00006FB0C33090C4FEA134C06FB01CC99B2FC
:101EE000ABEB01011FFA8CF311FA82F1C3EB124242
:101EF00002EB214289B241EA0241774540F8041BD6
:101F00004FEA1C434FEA224BDDD2009B58F80330C6
:101F100073B9019B043B984504D307E0984504F14D
:101F2000FF3403D253F80429002AF7D0C9F810402F
:101F30005146484602F01AFC00282BDB0136404689
:101F4000002355F8041BD0F800C08AB29A1A0B0C73
:101F500012FA8CF2C3EB1C4303EB224392B242EA27
:101F60000342AF4240F8042B4FEA2343E9D258F82A
:101F7000242008EB84036AB9043B984504D307E0A6
:101F8000984504F1FF3403D253F80429002AF7D00E
:101F9000C9F81040304603B0BDE8F08F002003B010
:101FA000BDE8F08F2DE9F04F016C99B0904699464D
:101FB000CDE90489259D044641B1426C4A60012364
:101FC00093408B6002F01CF900232364B9F1000AEE
:101FD000B4BF012300232B60754BBCBF2AF0004A1D
:101FE000CDF814A033EA0A0300F0AA80DDE9042347
:101FF0001046194600220023CDE90A0105F0F8F841
:10200000074670B1249A01231360269B002B00F031
:10201000E28268481860431E0393039819B0BDE834
:10202000F08F16AB019317AB00932046DDE90A232E
:1020300002F0ECFC5FEA1A56054640F09780DDE9B5
:1020400016763E4406F23240202840F3B383C0F1B6
:1020500040000AFA00FA06F2124028FA00F04AEAB2
:10206000000004F0E3FD0123013EA1F1F8710F939C
:10207000514B002204F09CFC47A3D3E9002304F059
:102080004FFE47A3D3E9002304F094FC804630467A
:10209000894604F0DBFD44A3D3E9002304F040FEAD
:1020A00002460B464046494604F084FC8046894679
:1020B00005F0E6F80022834600234046494605F035
:1020C000A1F8002840F07A82BBF1160F00F2698275
:1020D0003A4B03EBCB03D3E90023DDE90A0105F01A
:1020E00091F8002870D00023BE1B0E93731E0BF1D5
:1020F000FF3B069300F15C8200230993BBF1000FC4
:1021000069DA099BCDF81CB0A3EB0B030993CBF163
:1021100000030D93229B092B4FF0000B64D8052B75
:1021200040F34683043B22930026229B023B032B71
:1021300000F26686DFE813F05A0457044E043104B7
:10214000249A42F20F73CAF3130A13605AEA08037F
:102150001AD1269B002B00F06286194B039308339B
:10216000269A0398136019B0BDE8F08FDDE90A12D2
:10217000C2F31303084643F07F510F97A6F2FF36D0
:10218000169F41F4401173E7269B002B40F0E88333
:102190000C4B039341E700BF61436F63A787D23FB6
:1021A000B3C8608B288AC63FFB799F501344D33F46
:1021B0000000F07F259C00080000F83FE096000832
:1021C0002C9C0008289C0008BE1B731E069300F17F
:1021D00085840E900990069B5B44CDE9063B002365
:1021E0000D93229B092B9AD90023CDE92233012696
:1021F0004FF0FF330C960893089B12930021616403
:10220000204601F0D7FF0390002800F00186039BD1
:102210002364089B0E2B00F21381002E00F0108126
:102220000799002940F35C84AE4B01F00F0203EBE9
:10223000C2034FEA2118C905D3E9006740F11484AD
:10224000A94BDDE90A01D3E9082304F093FECDE9A7
:10225000100108F00F084FF0030AB8F1000F13D077
:10226000DFF8849218F0010F09D030463946D9E9D9
:10227000002304F055FD0AF1010A06460F465FEA05
:10228000680809F10809EDD1DDE9100132463B4645
:1022900004F070FE804689460E9B43B1934B0022AA
:1022A0004046494604F0AEFF002840F030855046D5
:1022B00004F0CCFC42464B4604F032FD8C4B00222D
:1022C00004F078FBA1F15073CDE910011193089B44
:1022D000002B00F09780079B1493089B13930C9B93
:1022E000002B00F0A584139A7E4B8249039E03EBDA
:1022F000C20353E90223002004F03CFEDDE9102371
:1023000004F056FBCDE910014946404604F0B8FF01
:10231000074604F09BFC02460B464046494604F043
:1023200047FB3037DDE9102306F8017B80468946FC
:1023300004F068FF002840F02985CDF854B000274C
:10234000DDE910AB1095139D13942AE00137AF42DD
:1023500080F22C85684B50465946002204F0E0FC80
:10236000654B002282468B464046494604F0D8FC25
:102370008946804604F084FF044604F067FC024668
:102380000B464046494604F013FB303406F8014B37
:1023900052465B468046894604F034FF002840F0F0
:1023A000F38442464B465149002004F001FB52465B
:1023B0005B4604F027FF0028C8D0DDE91343109DD9
:1023C000039A079302E0964200F0C884B24616F8DA
:1023D000013D392BF7D00133DBB23370079B01335A
:1023E0000793C8E1504604F031FC42464B4604F0E6
:1023F00097FC3F4B002204F0DDFAA1F15073CDE9C8
:10240000100111933D4B40464946002204F0D0FA9A
:10241000DDE910894B46424606460F4604F010FFA0
:102420008146002840F0AA84DDE91001024601F14E
:1024300000433046394604F0E5FE002840F045836D
:10244000179B002BC0F28C80079A0E2A00F388801D
:10245000244B03EBC203D3E900AB239B002B1BDA15
:10246000089B002B18DC40F02E83244B00225046A2
:10247000594604F055FC02460B46DDE90A0104F01A
:10248000CBFEDDF820904E46002800F0C782239B4B
:10249000DDF80C80DF43C9E2DDE90A7852465B468D
:1024A0003846414604F066FD04F0EAFE8146099094
:1024B00004F0CCFB52465B4604F032FC039E0B4614
:1024C00002464146384604F073FA09F1300306F833
:1024D000013B089B012B00F05C83069401270495C7
:1024E0001C462AE0E0960008D09700080000F03F64
:1024F00000001C400000E03F0000244000001440A9
:1025000052465B464046494604F034FD04F0B8FEAE
:10251000054604F09BFB52465B4604F001FC013784
:102520000B4602464946404604F042FA05F13003A4
:10253000A74206F8013B00F02983AC4B002204F0CF
:10254000EFFB002200238046894604F051FE00285C
:10255000D6D0049D069C079B01330793B2460AE13F
:102560000C9A002A3DD0229A012A40F39C82089BB3
:1025700003F1FF380D9B4345C0F26D82A3EB0808C1
:10258000089B002BC0F23C83069A1A440692099AD3
:1025900017461A4409920121204601F033FF0646EE
:1025A00023E00123BE1B0E93731E06937FF5A4AD9B
:1025B000C6F101030993002306939FE5584604F0F2
:1025C00045FB42464B4604F013FE00287FF47CADE9
:1025D0000BF1FF3B78E5864B0393039819B0BDE8F8
:1025E000F08FDDF83480099F0C9E002F0CDD0699DA
:1025F00000290B4608DD099AB942A8BF3B46D21A0A
:10260000FF1ACB1A099206930D9BDBB10C9B002B92
:1026100000F05D82B8F1000F0FDD314642462046E2
:1026200001F0CCFF2A4601460646204601F018FF7D
:1026300029460546204601F0E3FD0D9BB3EB080259
:1026400040F0D8820121204601F0DCFEBBF1000FF2
:10265000814600F3B480229B012B40F386814FF02A
:10266000000A0120BBF1000F40F0B580069A10442B
:1026700010F01F0000F09380C0F12003042B40F302
:10268000D283099BC0F11C00034402440993074410
:102690000692099B002B05DD29461A46204601F0CB
:1026A000EDFF0546069B002B05DD49461A462046F0
:1026B00001F0E4FF81460E9B002B40F03681089B21
:1026C000002B40F31D810C9B002B40F0A080079B4A
:1026D00001330793DDF80C80DDF820A0012707E027
:1026E000294600230A22204601F094FD01370546C1
:1026F00049462846FFF7C4FB574500F1300308F868
:10270000013BEDDB089A002AC8BF9346039AD8BF65
:102710004FF0010B934400272946012220460493E1
:1027200001F0ACFF4946054602F020F8002840F3CE
:10273000A8811BF8013C039A0BF1FF3B04E05A45CA
:1027400000F0AA811BF8013D392B0BF1010AF6D0EC
:1027500001338BF800304946204601F051FD56B157
:102760002FB1B74203D03946204601F049FD31462A
:10277000204601F045FD2946204601F041FD002399
:102780008AF80030249B079A1A60269B002B3FF49E
:1027900044AC0398C3F800A019B0BDE8F08F1C202A
:1027A000099B03440993069B03440744069370E77F
:1027B0000126BAE4C0F1200008FA00F051E4014615
:1027C0005A46204601F0FAFE229B012B814640F337
:1027D000B3814FF0000AD9F8103009EB8303186970
:1027E00001F0C2FDC0F1200040E700BF000024401E
:1027F000249C0008314600230A22204601F00AFDED
:10280000129B002B064640F3E782CDE90783002F99
:1028100000F31A81BAF1000F40F0D581B046049B55
:10282000039F089903F001027B1E1944229B0C921E
:10283000134309910A9349462846FFF721FB314685
:102840008346284601F092FF42464946824620468A
:1028500001F0ACFFC26801460BF13003002A42D1FF
:1028600006902846089301F081FF069904902046BF
:1028700001F0C6FC049A089B1AB90A99002900F0D5
:102880009B82BAF1000FC0F2638122994AEA010AE1
:102890000C9951EA0A0100F05B81002A00F3B4812F
:1028A000099A3B7007F1010A9742D34600F0B281C2
:1028B000294600230A22204601F0ACFC4645054685
:1028C00031464FF000034FF00A02204612D001F0CB
:1028D000A1FC4146064600230A22204601F09AFC4C
:1028E00057468046A7E72046049301F089FC049BE5
:1028F0000122C6E701F08EFC5746064680469AE75D
:10290000229B022B79DC0C9B002B80D1079B494634
:10291000013328460793FFF7B3FADDF80CB000F156
:1029200030030BF8013B0027F6E64946284601F044
:102930001DFF0028BFF6C3AE294600230A22204609
:1029400001F068FC079B03F1FF380C9B0546002B48
:102950007FF450AF129B002B40F335820893B9E609
:10296000AF4B03930333FFF7FBBBDDE904120029F0
:102970007FF475AEC2F31303002B7FF470AEA94B46
:102980001340002B00F0FE81099B01330993069B45
:10299000013306934FF0010A63E601230C93239B56
:1029A000079A134412930133012B1F460893B8BFB3
:1029B00001270021172F61647FF722AC0122042335
:1029C0005B0003F11400B842114602F10102F7D98D
:1029D000616415E401230C93239B002B4CDD1293BF
:1029E00008931F46E5E700230C93D8E700230C93D8
:1029F000F2E7129BCDF81C800893089B002B7FF414
:102A000046AD49460522204601F004FC01468146B8
:102A1000284601F0ABFE00287FF739AD0398079FE9
:102A20003123804600F8013B013703904946204698
:102A300001F0E6FB7B1CDDF80CA00793CDF80C80C1
:102A4000002E7FF494AE96E631463A46204601F0D9
:102A500015FE0646DEE60D9BCDF83480A8EB030399
:102A60009B444FF000088BE5DDE90A234FF0020A92
:102A7000CDE91023FFF7F1BB012323930893FFF760
:102A8000BBBB03D1049BDB073FF553AEDA461BF813
:102A9000013D302BFAD05EE6079B039A0133079382
:102AA0003123137057E60F9A002A00F0268103F2B3
:102AB0003343069ADDF834801A440692099A174681
:102AC0001A44099267E54FF000094E46DFE42946B3
:102AD0000D9A204601F072FD0546B3E50E9067E5BC
:102AE00000F00F81079A504B564206F00F0203EB9D
:102AF000C203D3E90023DDE90A0104F011F936111C
:102B00008046894600F07181484F00234FF0020A49
:102B1000F20706D5D7E9002304F002F90AF1010A09
:102B20000123761007F10807F2D1002B3FF4B4AB74
:102B300080468946FFF7B0BB049B002B7FF449AE6B
:102B4000DDE90412C2F31303002B3FF418AF40E693
:102B5000002A12DD294601222046049301F08EFD51
:102B60004946054601F002FE0028049B40F3188107
:102B7000392B00F0F9800BF13103BA460AF8013B1A
:102B8000079B0133374607934646E4E50995069CC3
:102B9000049D02460B4603F00DFF52465B468046FD
:102BA000894604F04DFB60B952465B4640464946B3
:102BB00004F01EFB00283FF4CEAC099BD9077FF53B
:102BC000CAAC039A02E47168204601F0F3FA0746A2
:102BD000002800F00E81336902339A0006F10C01DF
:102BE0000C3001F0CDF939460122204601F046FDB6
:102BF000804614E62946204601F0E0FC054621E522
:102C0000DDE908239F1AC6E4392B00F0AD80BA46EF
:102C10000133B3E7079A01323746079246467BE510
:102C2000289C00080000F07FE0960008D09700087C
:102C3000DDF84CA0844901EBCA01DDE9102351E91C
:102C4000020104F06DF8CDE910014946404604F058
:102C500017FB064603F0FAFF0B460246494640467C
:102C600003F0A6FE039F53463036012B07F8016B95
:102C70008046894600F0AE80139E039B1E44734B32
:102C800000224046494604F04BF88946804604F04D
:102C9000F7FA824603F0DAFF0AF1300A02460B46E1
:102CA0004046494603F084FE07F801ABB742804630
:102CB0008946E4D1664B0022DDE9100103F07AFE7B
:102CC00042464B4604F09EFA002864D1DDE9102309
:102CD0005F49002003F06CFE42464B4604F0B0FA18
:102CE00000283FF4ADABB246013E1AF8013C302B50
:102CF000F9D0149B013307933DE5169BC3F13603CE
:102D0000D7E6DDE90A894FF0020AFFF7C5BA089B4A
:102D1000002B3FF467AB129B002B7FF791AB079A18
:102D2000013ACDE913324046484B0022494603F0B0
:102D3000F7FF804689460AF1010003F087FF42460B
:102D40004B4603F0EDFF434B002203F033FEA1F1AD
:102D50005073CDE910011193FFF7C1BA079B0133FE
:102D600007933123FFF739BB079BBB46013307931A
:102D7000392337460BF8013B4646DCE44FF00009A7
:102D80004E464BE69A466CE4109D139C149B01330F
:102D90000793B246EFE4149B039A0793FFF716BB21
:102DA0007FF4EBAEDA077FF5E8AEE1E6DDF854B08C
:102DB000109D139CFFF744BB392BD5D0BAF1000FFF
:102DC0003FF7D9AED9E6229B022B3FF712AECDF8E2
:102DD0001C809BE53E466DE7229B022B3FF709AE28
:102DE000129BCDF81C80089311E54FF0020AFFF703
:102DF00053BA194B19483A4640F2EA2103F00CF84D
:102E0000002666643146204601F0D4F9039078B973
:102E1000114B124800224FF4D57102F0FDFF104B08
:102E20000393FFF7FAB83FF434ACC0F13C00B7E4C9
:102E3000039B236401224FF0FF33239612930C92DD
:102E40000893FFF7FDBA00BFE09600080000244099
:102E50000000E03F00001C40389C00084C9C00082B
:102E60002C9C0008B1F90C20F8B50C461107074658
:102E700042D4636842F40062002BA28159DDA56A46
:102E8000002D54D000233E683B6093B212F4805270
:102E900053D1E16901233846A847421C63D0A38976
:102EA000A56A5B0705D56368C01A236B0BB1E36B9A
:102EB000C01AE169024600233846A847411C3ED1AA
:102EC0003B68002B3BD01D2B01D0162B52D1A38980
:102ED0002269226023F4006300216160A381216BD9
:102EE0003E6021B304F14003994202D0384600F01D
:102EF000E3F900202063F8BD2669C6B193B22568C6
:102F000026609A070CBF63690023AD1BA3600CE029
:102F1000D4F824C0E1692B4632463846E047B0F188
:102F2000000CA5EB0C05664416DD002DF0DC00203E
:102F3000F8BDE36B002BA2DCF9E7206DB1E7B4F933
:102F40000C302269226023F40063A3810022DB0499
:102F50006260C4D52065C2E7A38943F040034FF007
:102F6000FF30A381F8BD3B68002B98D01D2B06D005
:102F7000162B04D0A38943F04003A381F8BD3E6023
:102F8000D5E700BF38B50D46044608B1836B1BB1C9
:102F9000B5F90C0030B938BD00F01EF9B5F90C00D8
:102FA0000028F8D029462046BDE83840FFF75ABF30
:102FB00038B5B8B10F4B1D6804460DB1AB6B4BB1C2
:102FC000B4F90C0000B938BD21462846BDE83840A8
:102FD000FFF748BF284600F0FFF8B4F90C000028BE
:102FE000F1D0F1E7044B05491868BDE8384000F01E
:102FF000FDBB00BF00000020A8960008852F000838
:1030000000207047014900F0F1BB00BF4D5F000890
:10301000002070472DE9F84F2D4A4668C26300240E
:103020000323C0E9B843074600F53B720423C0F808
:10303000E8222146C6E902430822C6E90044C6E95F
:1030400004447466B46106F15C00FDF7C5FADFF86C
:1030500084B0BD68DFF880A0DFF88090DFF8808062
:10306000204BC6F824A0C6E9076BC6F82890C6F81E
:103070002C800822EB60C5E90044C5E904446C6675
:10308000AC60AC61214605F15C00FDF7A5FAC5E92D
:10309000075BC5E909A9C5F82C80FD68124BEB60F8
:1030A000C5E90044C5E904446C66AC60AC612146E6
:1030B000082205F15C00FDF78FFA0123C5E9075BE3
:1030C000C5E90A98C5F824A0BB63BDE8F88F00BF26
:1030D000053000081D5000084550000885500008C4
:1030E000A5500008090001001200020070B5682216
:1030F0004D1E02FB05F50E4605F1740100F044FC7F
:10310000044640B100210C30C4E90016A06005F16E
:103110006802FDF761FA204670BD00BF274B2DE91C
:10312000F0411E68B36B07465BB306F538764FF087
:103130000408D6E90134013B04D51EE05A1C04F111
:1031400068041AD0B4F90C50013B002DF6D11C4B89
:103150006566C4E90055C4E90253C4E90455A56194
:103160000822294604F15C00FDF736FAC4E90C5543
:10317000C4E911552046BDE8F08135682DB12E46D1
:10318000D7E73046FFF746FFCFE74FF4D671384612
:1031900000F0FAFB044668B10560C0F804800C300A
:1031A0002946A06025464FF4D072FDF715FA346029
:1031B0002E46BEE70C2330603B60DBE7A896000894
:1031C0000100FFFF024B0349186800F00FBB00BF6E
:1031D000A89600084D5F0008836B03B1704719E79C
:1031E000704700BF704700BF704700BF704700BF07
:1031F000024B0349186800F0D9BA00BF0000002054
:1032000001300008024B0349186800F0CFBA00BF34
:103210000000002011300008F8B5244F0C46064687
:1032200000F0C4FFBA685568C4F57E630F3325F01B
:1032300003052B4423F47F6323F00F03A3F580548D
:10324000B4F5805F07DB0021304601F0D5FEBB6896
:103250002B44984204D0304600F0AAFF0020F8BD6D
:103260006142304601F0C8FE01300DD0104ABB6803
:103270002D1B45F001055D60136830461B1B136074
:1032800000F096FF0120F8BD0021304601F0B4FEA9
:10329000BA68831A0F2BDEDD43F001035360054B40
:1032A00003491B68C01A0860D5E700BF300400203E
:1032B000DC09002038080020002961D0F8B50C4650
:1032C000064600F073FF54F8042C7B4FA4F1080568
:1032D00022F0010105EB010CB868DCF80430604510
:1032E00023F0030300F08B80D207CCF8043032D4F3
:1032F00054F8082CAD1A1144AA6807F1080082425C
:103300006AD00CEB0304D4F804E0EC68D4601EF03F
:10331000010FA26000F0978041F001036B60CCF8D0
:103320000010B1F5007F35D27A68CB084809012139
:10333000013381401143796007EBC30257F8331022
:10334000083AC5E9021247F83350CD603046BDE86F
:10335000F84000F02DBF0CEB03025268D00710D4E8
:10336000194407F10800DCF80830834273D0DCF818
:103370000C20DA60936041F001036B606950D0E784
:10338000704741F00103B1F5007F44F8043CCCF8EC
:103390000010C9D3B1F5206F4FEA512348D28B09F1
:1033A00003F1390003F13802C300F818FB5808385C
:1033B000984259D05A6822F003028A4202D99B6887
:1033C0009842F7D1D868C5E902308560DD603046A3
:1033D000BDE8F84000F0ECBE0CEB03025268D207E7
:1033E00063D40B44DCE90212CA60916043F001022D
:1033F0006A603046EB50BDE8F84000F0D9BE0B449F
:10340000D10707D454F8082CAD1A1344D5E9021299
:10341000CA60916043F001026A60284ABD60126888
:103420009A4293D8264B30461968FFF7F5FE8DE790
:10343000142B0AD9542B1FD80B0B03F16F0003F187
:103440006E02C300B1E719448DE703F15C0003F19C
:103450005B02C300A9E741F00103C7E90455C5E9D0
:1034600002006B60695071E779689210012404FAD8
:1034700002F20A437A60A6E7B3F5AA7F06D8CB0B1F
:1034800003F1780003F17702C3008EE740F2545253
:10349000934206D88B0C03F17D0003F17C02C3003C
:1034A00083E74FF47E737E227FE741F001036B6078
:1034B000CCF800104AE700BF300400203C08002090
:1034C000D80900209368002B00F081802DE9F04F8F
:1034D000B1F90C300C461907804683B0174698B2F4
:1034E00023D523690BB310F002033D682BD04FF0B6
:1034F000000ADFF8B4B256465E453346524628BF4E
:103500005B464046002E4FD0E169D4F824C0E04726
:10351000002852DDBB681B1A8244361ABB60002BA0
:10352000EAD1002003B0BDE8F08F21464046FEF707
:1035300007FC002840F03481B4F90C303D6898B2A3
:1035400010F00203D3D110F0010942D14E463EB330
:103550008205D4F808B040F18180B3455A4600F2A4
:10356000B18010F4906F40F0BE802068019249460F
:1035700000F0A0FDA3682168019AA3EB0B030A44A5
:10358000B246A36022600026B868A0EB0A00D144CE
:10359000B8600028C5D0B4F90C0080B2002ED7D195
:1035A000D5E900960835D2E7D5E900A60835A3E7A6
:1035B00021464046FFF7E6FC80B3B4F90C3043F0F7
:1035C00040034FF0FF30A38103B0BDE8F08F00202F
:1035D00070471E46AA46994618461D4656B388B3FC
:1035E0004A46D4E904132068B24228BF32468842D2
:1035F00005D9A16803EB010B5A4500F3A78093425C
:1036000064DCE169D4F824C02A464046E047B0F1C2
:10361000000BD2DDB9EB0B09CAD00120BB68A3EBCC
:103620000B035D44A6EB0B06BB60002B3FF479AFA8
:10363000002ED4D10AF1080353E902569A46083302
:10364000002EF9D032460A21284600F049FC002815
:1036500000F09D800130A0EB0509C1E720682369D7
:10366000984217D86369B34214D86FF00042B2424F
:1036700028BF3246E16992FBF3F2D4F824C002FB82
:1036800003F340464A46E047B0F1000A95DDA6EB59
:103690000A0679E7B345DA4628BFB246524649469C
:1036A00000F008FDA3682268A3EB0A035244A3605C
:1036B0002260002BEBD121464046FFF763FC002837
:1036C000E5D07AE72068B34632464FE729460192B3
:1036D00000F0F0FC019AA3689B1AA36023681344CE
:1036E0002360934696E723682169A3EB010B636986
:1036F00003EB430A0AEBDA7A0BF101034FEA6A0A99
:1037000033445345524684BF9A46524643052CD50E
:103710001146404600F038F900283BD05A4621694E
:10372000019000F02DFCA289019B22F4906242F0EE
:103730008002A28103EB0B002361AAEB0B03C4F808
:1037400014A0A3602060B34632460FE729465A46CC
:1037500000F0B0FC23685B44236021464046FFF73D
:1037600011FC00283FF456AF27E7404601F058FA15
:1037700003460028DED121694046FFF79DFDB4F9DC
:103780000C300C2223F08003C8F8002017E7721CCD
:10379000914626E70C22B4F90C30C8F800200EE759
:1037A0004FF0FF30BEE600BF00FCFF7F2DE9F04187
:1037B000884600F538770026D7E90154013D0FD43B
:1037C000A389012B05F1FF3506D9B4F90E30013379
:1037D000204601D0C04706436B1C04F16804EFD1BA
:1037E0003F68002FE8D13046BDE8F0812DE9F8436D
:1037F0000746884600F538764FF00009D6E90154AF
:10380000013D11D4A389012B05F1FF3508D9B4F985
:103810000E300133214603D03846C04749EA00093B
:103820006B1C04F16804EDD13668002EE6D14846E1
:10383000BDE8F883F0307047004870473009002039
:1038400000487047300900202DE9F0418B890C4673
:10385000990796B008D504F143030122C4E9043264
:10386000236016B0BDE8F081B4F90E1000290646B9
:1038700027DB6A4602F04AFC002821DB019D05F4A3
:103880007045A5F50055B5FA85F54FF480686D09CA
:103890004FF400674146304600F076F8B4F90C303A
:1038A000F0B1204AF26343F08003C4F81480A3818E
:1038B0002060206135BB3B43A38116B0BDE8F08199
:1038C000A38913F0800519D04FF0400841463046D7
:1038D00000F05AF80025B4F90C302F460028E0D14A
:1038E0009A05BED423F0030304F1430243F002031C
:1038F0000121C4E90421A3812260B2E74FF480686A
:103900002F46C7E7B4F90E10304602F015FC10B987
:10391000B4F90C30CFE7A38923F0030343F001038C
:103920001BB2C8E70530000870B50C46B1F90E109F
:10393000002996B015461E4614DB6A4602F0E6FBE7
:1039400000280FDB019A02F47042A2F50052B2FA8D
:1039500082F24FF4806352094FF4006032602B60B2
:1039600016B070BDB4F90C10002311F08000336064
:1039700004D0402218462A6016B070BD4FF4806310
:103980002B6016B070BD00BF2DE9F04F01F10B06A2
:10399000162E83B0044624D8102900F2BA8000F015
:1039A00005FC102618220220B74F3A44A2F1080164
:1039B00053688B4200F0BA805A68D96822F003023B
:1039C0001A449D68E9608D60516841F0010120460C
:1039D000516003F1080500F0EBFB284603B0BDE899
:1039E000F08F36F0070600F19480B14200F291802A
:1039F00000F0DCFBB6F5FC7FC0F09681730A00F0A6
:103A00008F80042B00F26B81B30903F1390003F1BD
:103A1000380CC3009C4F3B44A3F108055B689D42F2
:103A200006D10CE0002980F22B81DB689D4206D094
:103A30005A6822F00302911B0F29F3DD60463D69AD
:103A4000DFF848C265457CD06A6822F00302931B08
:103A50000F2B00F37781002BC7E904CC80F268813B
:103A6000B2F5007F80F01681D308796801334FEA00
:103A7000521E012202FA0EF20A4357F833E0C5F84B
:103A800008E007EBC3010839E9607A6047F8335072
:103A9000CEF80C50831001219940914257D8114221
:103AA00006D120F003004900114200F10400FAD0D1
:103AB00007EBC0094D468646D5F80C80454508D130
:103AC00019E1002B80F22081D8F80C80454500F0E8
:103AD0001281D8F8042022F00302931B0F2BF0DD93
:103AE0002046D8E9025408EB060146F00106C8F862
:103AF0000460EC60A56043F00104C7E90411C1E96A
:103B000002CC4C6048F8023000F052FB08F1080586
:103B100002E00C2323600025284603B0BDE8F08FA7
:103B20004FF4007340204FF03F0C73E7D3689A4284
:103B300008BF02307FF440AF3D69DFF850C16545F2
:103B400082D17A688310012199409142A7D9BD683A
:103B50006B6823F00308464503D8A8EB06030F2B38
:103B60007EDCDFF82C91D7F80824D9F80030013238
:103B7000334405EB080A00F02F8103F580530F331F
:103B800023F47F6B2BF00F0B5946204601F034FADB
:103B9000411C024600F0EF80824500F2EA80D9F82D
:103BA00004105944C9F804100B4600F04B81D7F8B3
:103BB000081401311BBFA2EB0A0A5344C7F80824BA
:103BC000C9F8043012F0070300F01281C3F10801B4
:103BD0000A44C3F5805193440831A1EB0B01C1F3B2
:103BE0000B0A514620460192009301F005FA421C4F
:103BF000DDE9003200F04B81831A03EB0A0BD9F8A0
:103C00000400BA604BF001030AEB0001BD425360AF
:103C1000C9F8041000F02281B8F10F0F40F22081A2
:103C20006B68A8F10C0020F0070003F001030343C8
:103C30006B604FF0050C2B180F28C3E901CC00F284
:103C40002D8153681546D9F82C208A42D9F83020A6
:103C500038BFC9F82C108A4238BFC9F830108CE040
:103C6000AA1943F0010346F001066E602046BA60CF
:103C7000536000F09DFA0835284603B0BDE8F08F88
:103C8000D9681A449DE600BF3004002038040020A3
:103C9000D8090020B2F5206F4FEA522363D3142BCA
:103CA00000F2B88003F15C01C9005B3307EB010E41
:103CB0007958AEF1080E8E4500F091804B6823F0E4
:103CC0000303934202D989688E45F7D1D1F80CE0FD
:103CD0007A68C5E9021ECEF80850CD60DAE6142BEA
:103CE00059D9542B00F29E80330B03F16F0003F17E
:103CF0006E0CC3008EE60EF1010E1EF0030F05F1EF
:103D000008057FF4D9AE51E0424445465368D8F8DF
:103D10000C1043F00103536055F8083F2046D9606A
:103D20008B6000F045FAF7E6F00806F108023BE682
:103D30002A442046536843F001035360083500F0DD
:103D400037FAE9E6A919204646F0010643F00104D6
:103D50006E60C7E90411C1E902CC4C60AB5000F0C1
:103D600027FA0835D8E6930903F13901C900383339
:103D70009CE7BD4260D0BD686B6823F0030B5E45D5
:103D8000ABEB060302D80F2B3FF76AAF204600F0DB
:103D90000FFA0025C0E603F15C0003F15B0CC300E1
:103DA00038E659F808394B4540F0968010F0030F7B
:103DB00000F1FF30F5D17B6823EA01037B60490005
:103DC00099423FF6C4AE19B9C1E649000EF1040E9E
:103DD0001942FAD070466BE603F1100BD4E69A1044
:103DE0004FF001087B6808FA02F21A437A6070E724
:103DF00002EB0B014942C1F30B0A514620460193E5
:103E0000009201F0F9F8431CDDE900237FF4F4AEE1
:103E10009A46F4E6542B26D8130B03F16F01C90020
:103E20006E3343E7B3F5AA7F26D8F30B03F178008E
:103E300003F1770CC300EDE5D9F804305B44C9F811
:103E40000430B4E6CAF30B0000287FF4B0AEBD68BE
:103E500008EB0B0343F001036B60F4E61546F2E652
:103E60000123536092E7B3F5AA7F21D8D30B03F166
:103E70007801C900773319E740F25452934221D8B0
:103E8000B30C03F17D0003F17C0CC300C2E5083BD9
:103E90009B44ABEB020B4FF0000AB0E605F10801C2
:103EA0002046FFF709FABD68D9F804106B68CAE626
:103EB00040F254518B420BD8930C03F17D01C900A1
:103EC0007C33F3E64FF47E737F204FF07E0CA1E548
:103ED0004FF47E717E23E9E67B6870E70000000006
:103EE00001F0FF01102A2BDB10F0070F08D010F8AB
:103EF000013B013A8B422DD010F0070F42B3F6D1AF
:103F0000F0B441EA012141EA014122F007047FF0C7
:103F100000070023F0E80256083C85EA010586EA1E
:103F2000010685FA47F5A3FA87F586FA47F6A5FA5A
:103F300087F68EB9EED1F0BC01F0FF0102F0070266
:103F400032B110F8013B013A83EA010313B1F8D111
:103F50000020704701387047002D06BF35460338F2
:103F6000073815F0010F07D1013015F4807F02BF2B
:103F7000013015F4C03F0130F0BC0138704700BF7C
:103F8000844641EA000313F003036DD1403A41D364
:103F900051F8043B40F8043B51F8043B40F8043B23
:103FA00051F8043B40F8043B51F8043B40F8043B13
:103FB00051F8043B40F8043B51F8043B40F8043B03
:103FC00051F8043B40F8043B51F8043B40F8043BF3
:103FD00051F8043B40F8043B51F8043B40F8043BE3
:103FE00051F8043B40F8043B51F8043B40F8043BD3
:103FF00051F8043B40F8043B51F8043B40F8043BC3
:1040000051F8043B40F8043B51F8043B40F8043BB2
:10401000403ABDD2303211D351F8043B40F8043B52
:1040200051F8043B40F8043B51F8043B40F8043B92
:1040300051F8043B40F8043B103AEDD20C3205D362
:1040400051F8043B40F8043B043AF9D2043208D05A
:10405000D2071CBF11F8013B00F8013B01D30B88CC
:1040600003806046704700BF082A13D38B078DD0AA
:1040700010F003038AD0C3F10403D21ADB071CBF7C
:1040800011F8013B00F8013B80D331F8023B20F8E6
:10409000023B7BE7043AD9D3013A11F8013B00F81F
:1040A000013BF9D20B7803704B7843708B788370A7
:1040B0006046704788420DD98B1883420AD900EBBD
:1040C000020CBAB1624613F801CD02F801CD994253
:1040D000F9D170470F2A0ED8034602F1FF3C4AB1CE
:1040E0000CF1010C013B8C4411F8012B03F8012F5A
:1040F0006145F9D1704740EA01039B0750D1A2F115
:10410000100370B501F1200C23F00F0501F1100E22
:1041100000F11004AC441B095EF8105C44F8105C1C
:104120005EF80C5C44F80C5C5EF8085C44F8085CD3
:104130005EF8045C44F8045C0EF1100EE64504F1F0
:104140001004E9D1013312F00C0F01EB031102F05E
:104150000F0400EB031327D0043C24F003064FEABE
:10416000940C1E441C1F8E465EF8045B44F8045FEA
:10417000B442F9D10CF1010402F0030203EB840311
:1041800001EB840102F1FF3C4AB10CF1010C013B4F
:104190008C4411F8012B03F8012F6145F9D170BD52
:1041A00002F1FF3C03469BE72246EBE7704700BF66
:1041B000704700BFC36C70B505460C464BB153F851
:1041C000240080B1026843F824200023C0E90333AF
:1041D00070BD2122042101F045FE0346E864002859
:1041E000EDD1002070BD012101FA04F6721D92008C
:1041F000284601F037FE0028F3D0C0E90146E4E785
:1042000031B1C36C4A6853F82200086043F82210A9
:10421000704700BF2DE9F0410D6907460E461C4668
:1042200001F1140E0020DEF800108BB202FB0343F4
:104230004FEA134C090C02FB01CC01309BB203EB9B
:104240000C4385424EF8043B4FEA1C44EBDC3CB186
:10425000B368AB4207DD06EB850301355C61356170
:104260003046BDE8F081716838460131FFF7A2FFA2
:104270008046A8B13269023206F10C0192000C307E
:10428000FFF77EFEFB6C726853F82210316043F832
:104290002260464606EB850301355C613561DFE748
:1042A000024B03484246B52101F0B6FD389C000898
:1042B000809C00082DE9F8430C4628491E46174605
:1042C00003F1080281FB0231092E4FEAE273054631
:1042D000C3EB610339DD4FF0010C00214FEA4C0CB8
:1042E000634501F10101F9DC2846FFF763FF014650
:1042F00068B3089B4361092F4FF00103036112DC8F
:104300000A340927BE420BDDF61B264414F8013B94
:104310000A22303B2846FFF77DFFA6420146F5D131
:104320000846BDE8F88304F10909C8463C4418F87A
:10433000013B0A22303B2846FFF76CFFA0450146AF
:10434000F5D1A7F108044C44DCE70021CCE70A468C
:10435000034B0448CE2101F05FFD00BF398EE338E6
:10436000389C0008809C0008020C12040346CAB95D
:104370000304102013F07F4F04BF1B02083013F01A
:10438000704F04BF1B01043013F0404F04BF9B006B
:104390000230002B05DB13F0804F00F1010008BF55
:1043A000202070470020E5E70368024613F007006D
:1043B00007D0D9071DD498071FD55B0813600120CB
:1043C000704799B209B91B0C1020D9B209B908304D
:1043D0001B0A190704BF1B090430990704BF9B0877
:1043E0000230D90703D45B0800F1010003D0136049
:1043F000704700207047202070479B081360022000
:10440000704700BF38B5C36C04460D464BB15868C1
:10441000B0B102685A6000220123C0E90435C260CD
:1044200038BD2122042101F01DFD0346E06400286F
:10443000EDD1094B094800224FF4A07101F0ECFCCA
:104440001C220121204601F00DFD0028F1D001229F
:104450000223C0E90123DEE7389C0008809C0008A5
:104460002DE9F04F0E691569AE4285B088461446B5
:1044700005DB2A46234635460C4616469846A36871
:104480006168AF19BB42B8BF0131FFF793FE0190DD
:10449000002800F08780019B03F1140909EB870ACB
:1044A000D14505D24B46002243F8042B9A45FBD850
:1044B00008F1140808EB860B04F11403D8451A46DA
:1044C00003EB85055FD22B1B153B23F0030304335D
:1044D0001534A54238BF0423CDE902A7AC461F46D8
:1044E000924605E0000C29D1C34509F1040948D9D9
:1044F00058F8040B85B2002DF4D056464C460023E4
:1045000056F8040B216882B21FFA81FE05FB02EE09
:10451000000C0A0C734405FB002202EB13429BB211
:1045200043EA0243B44544F8043B4FEA1243E7D858
:1045300049F8073058F8040C000CD5D0D9F80030F1
:10454000544619464D4600222688090C00FB0611E8
:104550000A449BB243EA024345F8043B54F8046B17
:104560002968360C8BB200FB063303EB1243A445DB
:104570004FEA1342E8D8C34549F8073009F1040966
:10458000B6D8DDE902A7002F02DC05E0013F03D029
:104590005AF8043D002BF9D0019B18461F6105B065
:1045A000BDE8F08F034B0448019A40F25D1101F021
:1045B00033FC00BF389C0008809C000812F0030305
:1045C0002DE9F0411446064632D10D46A41020D004
:1045D000D6F84880B8F1000F33D0E3074FF000075A
:1045E00007D4641015D0D8F80000A8B18046E307BE
:1045F000F7D5424629463046FFF732FFB5B1696824
:10460000F36C641053F821202A6043F821500546CA
:10461000E9D12846BDE8F081424641463046FFF7E1
:104620001FFFC8F8000007608046E0E70546D8E7AE
:10463000013B0F4A52F823200023FFF7EBFD05460C
:10464000C4E701213046FFF7B5FD804640B10123A4
:1046500040F27122C0E904320023B0640360BCE779
:10466000044B054842464FF4A07101F0D5FB00BF52
:10467000D0960008389C0008809C00082DE9F0477F
:104680000C4690462669A368496806EB6216751CBD
:104690009D4207464FEA621904DD5B009D4201F12D
:1046A0000101FADC3846FFF785FD8446002851D029
:1046B000B9F1000F00F114000EDD09F105024FEA17
:1046C000820E03460CEB8202002143F8041B934246
:1046D000FBD1AEF114031844216904F1140318F05E
:1046E0001F0803EB81012DD0C8F1200986464FF049
:1046F000000A1A6802FA08F242EA0A024EF8042B8B
:1047000053F8042B994222FA09FAF2D80B1B153BF5
:1047100023F00303043304F11502914238BF04234C
:10472000BAF1000F18BF2E4640F803A0FB6C626878
:10473000CCF8106053F822102160604643F8224004
:10474000BDE8F087043853F8042B40F8042F994251
:10475000F9D8EBE7034B0448624640F2D91101F067
:104760005BFB00BF389C0008809C00080B698446F6
:104770000069C01A15D10CF1140C14310CEB830232
:1047800010B401EB830301E0944508D252F8044DC4
:1047900053F8041D8C42F7D004D24FF0FF3010BC08
:1047A00070477047012010BC704700BF2DE9F84FDB
:1047B0000F691369FF1A002F0E4690467AD101F156
:1047C0001405143202EB830205EB830301E09D42E2
:1047D00073D253F8041D52F8044DA142F7D064D3AC
:1047E0007168FFF7E7FC8146002872D03569D8F878
:1047F0001020C76008F1140E06F1140009F1140A24
:1048000006F1100C0EEB820200EB850756460021E4
:104810005EF8044B5CF804BFA3B211FA8BF1CB1A1B
:10482000210CC1EB1B4101EB23419BB243EA014345
:10483000724546F8043B4FEA2141E9D8A2EB08044F
:10484000153C08F11508424524F0030606F104065C
:1048500038BF0426304424F0030238BF00228742C8
:104860005244B24416D95646044654F8043B11FA51
:1048700083F10A1402EB134289B241EA0243A742D0
:1048800046F8043B4FEA2241EFD87A1E101A20F076
:104890000302524423B952F8043D013D002BFAD0E3
:1048A000C9F810504846BDE8F88F33460127464600
:1048B000984695E7F9DB002792E70021FFF77AFC9D
:1048C000814668B101220023C9E904234846BDE8B6
:1048D000F88F074B07484A464FF4107101F09CFAD5
:1048E000034B04484A4640F2322101F095FA00BFDA
:1048F000389C0008809C00080F4B0B40A3F15073BC
:10490000002B02DD0020194670475B42B3F1A07F07
:104910004FEA235205DA4FF40023002043FA02F154
:104920007047143A1E2ADABF4FF0004323FA02F20E
:1049300001220021104670470000F07F2DE9F84366
:10494000066900F1140808EB8606A6F1040956F87A
:10495000047C3846FFF708FDC0F120030A280B60ED
:1049600036DDC8451ED2B0F10B0356F8082C26D010
:10497000C3F1200C22FA0CF19F400F43A6F108016D
:1049800047F07F55884545F440153AD202FA03F0C6
:1049900056F80C3C23FA0CF303431C4620462946E8
:1049A000BDE8F883B0F10B0308D007FA03F343F036
:1049B0007F55002345F440151C46EFE71A4647F0A3
:1049C0007F5545F44015144620462946BDE8F88336
:1049D000C0F10B0327FA03F2C84542F07F553CBFF4
:1049E00056F8082CDA4000F1150328BF002207FA18
:1049F00003F345F4401543EA020420462946BDE886
:104A0000F88302FA03F31C46C8E700BF70B5012122
:104A100082B016461D46FFF7CDFB044600284BD05A
:104A20002B46C5F30A55C3F313030DB143F48013AA
:104A3000002E019322D068460096FFF7B5FC0028AF
:104A400036D0019B0099C0F1200203FA02F20A431A
:104A5000C34001936261002B14BF02210121A361B5
:104A60002161ADB1069AA5F2334303441360079B5D
:104A7000C0F135001860204602B070BD01A8FFF7F4
:104A800093FC019B0121C4E904132030002DE9D1DE
:104A900004EB8102A0F232431069069A1360FFF71B
:104AA00063FC079BC0EB41112046196002B070BD4A
:104AB000DDE900236261CEE7034B0448224640F261
:104AC0000A3101F0A9F900BF389C0008809C000859
:104AD0002DE9F04383B00F4669468046FFF72EFF6D
:104AE00004460D46384601A9FFF728FFD8F81030D4
:104AF0003A690F469A1ADDE90013CB1A03EB421309
:104B0000002B06460BDD05EB03594D4632463B466E
:104B10002046294602F02EFA03B0BDE8F083C3EB2D
:104B2000033307EB03510F46F0E700BF172870B5BA
:104B300006460ADD0849094D0020002422462B467E
:104B400002F0EEF8013EF9D170BD054B03EBC00653
:104B5000D6E9040170BD00BF0000F03F0000244012
:104B6000D09600080139491101F1010C116902F1D7
:104B7000140303EB81018B4200EB8C0C16D210B5B1
:104B8000A0F1040E53F8044B4EF8044F9942F9D8A3
:104B90008B1A153B23F0030304331844844504D9CE
:104BA000002340F8043B8445FBD810BD844505D95B
:104BB000002340F8043B8445FBD87047704700BF92
:104BC00003694A11934200F1140009DA00EB8303F0
:104BD00002E053F8042DC2B98342FAD8002070478E
:104BE00010DD11F01F010DD010B450F8224000EB81
:104BF000820324FA01F202FA01F18C420BD0012067
:104C000010BC704700EB8203E6E70120704753F8C1
:104C1000042D002AF3D18342F9D8002010BC70473C
:104C20002DE9F84F1746002900F0988007F10B0591
:104C300080460C46FFF7BAFA162D5DD810252A4695
:104C4000AF425ED854F8041C21F003069642A4F14A
:104C5000080962DABC4BD3F808C009EB06008445AA
:104C600000F09780D0F804C02CF0010303445B6887
:104C7000DB0768D42CF0030C06EB0C03934247DAF5
:104C8000CB0710D454F8083CA9EB030ADAF8043037
:104C900023F003018C44B444944580F211817318CD
:104CA000934280F2E88039464046FEF76DFE0746A3
:104CB000E0B154F8043C23F001034B44A0F1080296
:104CC000934200F0D280321F242A00F2F580132A8A
:104CD00000F2AC80034622461168196051685960A1
:104CE00092689A6021464046FEF7E6FA4046FFF792
:104CF0005FFA3846BDE8F88F25F00705002D2A46F3
:104D00009EDA0C23C8F8003000273846BDE8F88F3B
:104D10001E46D0E90223D3609A60731B0F2B22D862
:104D2000D9F8043003F0010333434E44C9F804308A
:104D3000736843F00103736040462746FFF738FA73
:104D40003846BDE8F88FC907ADD454F8083CA9EB44
:104D5000030ADAF8041021F00301A0E7BDE8F84FD8
:104D60001146FEF711BED9F8041001F001012943E4
:104D7000C9F8041009EB05014E4443F001034B60F0
:104D8000736843F00103083173604046FEF794FAFC
:104D9000D2E7DCF8040020F0030B06EB0B0C05F166
:104DA000100084454DDAC9073FF57DAF54F8081C63
:104DB000A9EB010ADAF8041021F003018B44B34493
:104DC00058453FF76CAF5746DAF80C1057F8080F04
:104DD000321F242AC160886000F2DB80132A40F26F
:104DE000D6802168CAF808106168CAF80C101B2A1E
:104DF00000F2DF8008340AF1100221681160616856
:104E00005160A16891600AEB0501ABEB050242F02D
:104E1000010299604A60DAF8043003F001031D438F
:104E20004046CAF80450FFF7C3F96EE723680360F1
:104E3000636843601B2A68D804F1080200F1080384
:104E40004AE709EB05029A60ACEB050343F0010366
:104E5000536054F8043C03F001031D43404644F8FA
:104E6000045CFFF7A5F927464FE750F8043C23F010
:104E700003031E4451E75746DAF80C1057F8080FA1
:104E8000321F242AC16088604CD8132A48D921686F
:104E9000CAF808106168CAF80C101B2A56D80834E2
:104EA0000AF110021E462368136063685360A3680A
:104EB0009360D1463C4630E72146FFF7FBF811E707
:104EC000D0E902135746CB60996057F8081FDAF80B
:104ED0000C30CB60321F242A99602DD8132A29D98F
:104EE0002368CAF808306368CAF80C301B2A42D815
:104EF00008340AF1100322681A6062685A60A268D6
:104F00009A606646D1463C4607E7A3688360E3683B
:104F1000C360242A26D004F1100200F11003DBE65E
:104F20003A46BFE7214638461E46D146FFF7C2F84B
:104F30003C46F2E63B46DEE7214638466646D14629
:104F4000FFF7B8F83C46E8E630040020A168CAF84C
:104F50001010E168CAF81410242A20D010340AF185
:104F600018029FE7236903616169416104F1180236
:104F700000F11803B0E6A368CAF81030E368CAF875
:104F80001430242A21D010340AF11803B3E73A462A
:104F900033E721463846FFF78DF8164B33E7226991
:104FA000CAF818206269CAF81C2018340AF12002D5
:104FB00078E7A168CAF81010E168CAF81410242A2A
:104FC0000DD010340AF1180217E72369CAF8183017
:104FD0006369CAF81C3018340AF120038BE7226990
:104FE000CAF818206269CAF81C2018340AF1200295
:104FF00003E700BF3004002038B5074D0022044607
:1050000008462A6002F04AFD431C00D038BD2B68D8
:10501000002BFBD0236038BD0C0A002010B50C46D5
:10502000B1F90E1001F016F9002803DB236D0344DB
:10503000236510BDA38923F48053A38110BD00BF55
:10504000002070472DE9F0410C46B1F90C101F46C5
:10505000CB05054616460BD421F48051A1813B4671
:10506000B4F90E1032462846BDE8F04100F0BEBE4D
:10507000B4F90E100223002201F0B6F8B4F90C10B6
:10508000EAE700BF10B50C46B1F90E1001F0ACF81C
:10509000A389421C0EBF23F4805343F48053206540
:1050A000A38110BDB1F90E1000F00CBF2DE9F84F2F
:1050B0004B6E9C0490462DD59368126843B38B4683
:1050C000064602F1080959E9025A5FEA9A0715D023
:1050D000043D002401E0A7420ED055F8041F5A46B3
:1050E000304600F0E1FF431C04F10104F3D100233A
:1050F000C8E90133BDE8F88FD8F808302AF0030A70
:10510000A3EB0A03C8F8083009F10809002BDAD12B
:105110000020ECE7FEF7D6F90023C8E90133BDE82B
:10512000F88F00BF10B494680CB110BCBEE72046E5
:10513000546010BC704700BF2DE9F04FABB01C4667
:10514000884617460693834618B1836B002B00F000
:105150002582B8F90C1088048AB20AD4D8F86430D1
:1051600041F4005223F40053A8F80C20C8F864302E
:1051700092B2130740F1A480D8F81030002B00F051
:105180009F8002F01A020A2A00F0A8801AAB0D9341
:105190000023CDE90E3309930DF1680905933B789F
:1051A000002B00F00D813C4604E014F8013F002B79
:1051B00000F0E880252BF8D1E51B40F0E58023784E
:1051C000002B00F0FD804FF0000200218DF82F2011
:1051D000637804914FF0FF32671C084602928A46BA
:1051E0000137A3F12002582A00F2F780DFE812F01D
:1051F0003302F500F5002F02F500F500F500F5008B
:10520000F500F500E5012B02F500F001F401F500D1
:1052100027025900590059005900590059005900F6
:1052200059005900F500F500F500F500F500F5000E
:10523000F500F500F500F5000E02F500F500F500AB
:10524000F500F500F500F500F500F500F500940017
:10525000F500F500F500F500F5008400F500F50017
:105260004802F500F500F500F500F500F500F50041
:10527000F500F500F5003A02A701F500F500F5008C
:105280008902A701F500F5007F02F500690296008A
:10529000C902C502F500A402F5008600F500F5007C
:1052A0008D02A3F13002002417F8013B04EB8404C3
:1052B00002EB4404A3F13002092AF5D9049490E7E3
:1052C00041465846FCF73CFD002840F03985B8F8C7
:1052D0000C2002F01A020A2A7FF458AFB8F90E30F7
:1052E000002BFFF653AF23463A46414658462BB0B3
:1052F000BDE8F04F00F044BD4AF0100A1AF020015A
:1053000000F00F81069B073323F00703596853F819
:10531000080B069301230EE04AF0100A1AF0200150
:1053200000F0F280069B073323F00703596853F817
:10533000080B069300234FF000028DF82F20002267
:105340000792029A541C00F02F822AF080040194E4
:1053500050EA010440F02682002A40F09584002B98
:1053600040F00E841AF00103039340F03E841AAC1F
:10537000DDE902639E42B8BF1E46079B002B3ED06C
:1053800001363CE0E51B1BD00E9B0F9A01332A44EB
:10539000072BC9E900750F920E9305DC09F1080986
:1053A000059B2B4405930AE7002A00F0D1830DAA40
:1053B00041465846FFF77AFE30B90DF16809EFE72C
:1053C0000F9B002B40F08584B8F80C305B0600F191
:1053D000B78405982BB0BDE8F08F002940F07584A4
:1053E000002BEDD08DF8403001264FF000038DF8F2
:1053F0002F30039610AC0023CDF804A00293019B3C
:1054000013F002030793019B18BF023613F08403C5
:10541000089304D1049B9D1B002D00F3DB82DDE982
:105420000E1001F1010C9DF82F3093B101300DF1F8
:105430002F030121BCF1070FCDE90EC0C9F80030E0
:10544000C9F8041000F3A682614609F108090CF1BD
:10545000010C079BEBB10CAB0230C9F80030BCF17A
:10546000070F4FF00203CDE90EC0C9F8043040F336
:10547000AB82002800F066830DAA41465846FFF72C
:1054800015FE0028A0D1DDE90E100DF1680901F12B
:10549000010C089B802B00F0C881DDE902329D1AC7
:1054A000002D00F31C82039BC9F800401844BCF196
:1054B000070FCDE90EC0C9F8043040F3B3810028CE
:1054C00000F0D2820DAA41465846FFF7EFFD0028B2
:1054D0007FF47AAF0F980DF16809019B5A0704D544
:1054E000049B9C1B002C00F3C982DDE90423B2421B
:1054F000ACBF9B189B190593002840F0368200230F
:105500000E930DF168094AE61AF0100349D11AF01A
:10551000400146D0069A52F8040B0692194680B212
:1055200009E71AF0100342D11AF040013FD0069A61
:1055300052F8040B0692194680B20123FBE60029BB
:1055400040F0E5831AF0200F069B68D0073323F064
:1055500007031A465B6852F8080B06921946002B9F
:10556000C0F20483029B013300F08A839DF82F3040
:10557000079350EA01032AF0800A00F054830A28B6
:1055800071F1000380F01283303001238DF8670041
:10559000CDF804A003930DF16704E9E6FDF71CFEC6
:1055A000D7E5069B53F8040B06930B46C3E6069B10
:1055B00053F8040B06930123BDE6069B53F8042B16
:1055C0000492002A80F20D83049A069352420492B8
:1055D0003B784AF0040A03E63C4614F8013B2A2BC8
:1055E00000F0B383A3F13002092A274698BF0024B4
:1055F00000F2938317F8013B04EB840402EB4404AC
:10560000A3F13002092AF5D90294EAE5002940F015
:1056100088834AF0100A1AF0200F069B96D153F89F
:10562000040B06931AF0100F40F09B821AF0400F03
:1056300000F0978240F3C0310B4600B28FE73B7811
:105640004AF0800ACCE53B7801212B20C8E53B7865
:105650004AF0010AC4E53B7800287FF4C1AD01217E
:105660002020BDE5069B4FF000028DF82F2001267B
:1056700053F8042B8DF840200693039610ACBAE63D
:10568000002940F05183BD4A09921AF0200144D00C
:10569000069A073222F00702516852F8080B069268
:1056A0001AF0010F0BD050EA010208D08DF831300A
:1056B00030238DF830304AF0020A02233BE6022301
:1056C00039E6002940F026831AF0200F40F09A8234
:1056D0001AF0100F40F0CC821AF0400F00F0C88290
:1056E000069B059953F8042B0693118057E53B78E8
:1056F0006C2B03BF7B784AF0200A01374AF0100A6E
:105700006EE53B784AF0400A6AE5002940F0FC82E9
:105710009B4A09921AF02001BAD11AF0100240F007
:105720001B821AF0400100F01782069C54F8040B0B
:105730000694114680B2B3E7069D55F8044B4FF02E
:1057400000038DF82F30002C00F0A482029B5E1C19
:1057500000F072821A4600212046FEF7C1FB0028A5
:1057600000F0C282031B03939DF82F3007930023A0
:105770000695CDF804A00293FAE53B784AF0200A9A
:105780002EE5069B53F8040B069330238DF830303A
:1057900078238DF831307A4B09934AF0020A0021C0
:1057A0000223C8E5DDF804A0012B3FF4E8AE022B8C
:1057B0001AAC12D1099A00F00F030009D35C04F867
:1057C000013D40EA0170090950EA0103F3D11AAB27
:1057D0001B1BCDF804A00393CAE500F00703C00823
:1057E00040EA4170C908303350EA0105224604F806
:1057F000013DF2D11AF0010FE9D0302BE7D0302370
:10580000023A04F8013C1AAB9B1ACDF804A00393AA
:105810001446ADE503981A9401231B900F900E9344
:105820000DF1680909F1080957E6049B9D1B002D3D
:105830007FF733AE102D40F37F82DFF848A1524648
:105840001023A246144607E001F1020E09F10809EF
:105850001146103D102D1DDD4A1C1030072AC9E9E4
:105860000043CDE90E20EFDD0DAA002800F08C806A
:10587000414658460DF16809FFF718FC00287FF4EF
:10588000A3ADDDE90E10103D102D01F1010E4FF01A
:105890001003E1DC234654469A462844BEF1070F24
:1058A000CDE90EE0C9F800A0C9F8045040F3A48186
:1058B000002800F0F8810DAA41465846FFF7F6FB94
:1058C00000287FF481ADDDE90232DDE90E109D1A7A
:1058D000002D01F1010C0DF168097FF7E4AD102DE9
:1058E000DFF8A0A02BDD52461023A246144607E0A5
:1058F00001F1020C09F108091146103D102D1BDDC4
:105900004A1C1030072AC9E90043CDE90E20EFDD1B
:105910000DAA414618B358460DF16809FFF7C6FBBA
:1059200000287FF451ADDDE90E10103D102D01F17E
:10593000010C4FF01003E3DC234654469A462844FA
:10594000BCF1070FCDE90EC0C9F800A0C9F804509A
:1059500000F3E38009F108090CF1010CA3E54FF015
:10596000010C01460DF16809C7E70DAA41465846EA
:10597000FFF79CFB00283FF4C2AD25E5089C00081A
:10598000F49B0008089800084FF0010E01460DF145
:1059900068095EE7002800F0D2800DAA414658460B
:1059A000FFF784FB00287FF40FADDDE90E100DF149
:1059B000680901F1010C4CE502200CAB1B901A9315
:1059C0004FF0010C0DF16809614609F1080901F178
:1059D000010C5EE5102D40F39181DFF804A3DDE9B1
:1059E0000EC052461023A2466146144607E001F15C
:1059F000020C09F108091146103D102D1BDD4A1C4F
:105A00001030072AC9E90043CDE90E20EFDD0DAAC9
:105A100020B3414658460DF16809FFF747FB0028BF
:105A20007FF4D2ACDDE90E10103D102D01F1010C18
:105A30004FF01003E3DC2346614654469A4628445F
:105A40000729CDE90E10C9F800A0C9F8045000F3E9
:105A50009C8009F1080901F1010CE4E401464FF0D2
:105A6000010C0DF16809C7E7019B0E9059074CD551
:105A7000049B9C1B002C48DD0DF16809102C40F3A1
:105A80005681DFF85CA20E9A53461025B2461E4698
:105A900006E0911C09F108091A46103C102C19DD8A
:105AA000531C1030072BC9E90065CDE90E30F0DD3D
:105AB0000DAA28B341465846FFF7F8FA00287FF4AC
:105AC00083ACDDE90E20103C102C02F101010DF138
:105AD0006809E5DC334656469A4620440729C9E959
:105AE00000A4CDE90E107FF700AD70B10DAA4146BC
:105AF0005846FFF7DBFA00287FF466AC0F98F4E411
